:020000001329C2
:10000800F000030EF1000B190A280E28AF0AB00AF7
:100018000B1191218C1C1228A0148C10710E8300D6
:06002800F00E700E09004D
:100200008A010A1482073F3406345B344F34663463
:100210006D347D3407347F34673477347C3439343B
:100220005E3479347134031783168801890103130E
:100230008316850187018801890107308600AF3068
:1002400092000313831285018601870188018901C9
:10025000A1012114AF01031383128B178B160B1707
:100260000B11031383168C14031383128C1091014A
:100270000313831264008101031383160F178F1673
:100280000F120F1481128111011581100114912197
:100290000F3092000F30A600A700A8004F292608B3
:1002A000A900AD00AE002708AA00AC00AE072808E0
:1002B000AB00AC07A2012214A0175E29A0184D22A2
:1002C00023080319B52124080319C521250803199A
:1002D000D72164302F060319E721143030060319A3
:1002E000A016B201B301B501B601B801B9012018D9
:1002F00028222018EC21033023060319A221033001
:1003000024060319A921033025060319AF2106305D
:1003100023060319972120199A21A01AB001A012CF
:100320005E2903138312633081000B110800221C25
:100330002015080005199F29A01A05150800A01A04
:100340000511080022180800201105118514051058
:100350000800A21808008512051685110800221948
:1003600008000911891409100800221CBE29290857
:10037000A300221005158510051008002C08A30005
:1003800022140511851005140800A21CCE292A0884
:10039000A400A21085160512851108002D08A400DE
:1003A000A214851205128515A01B56220800221DD5
:1003B000E0292B08A5002211091589100910080051
:1003C0002E08A50022150911891009140800A3039D
:1003D000A403A503AF0108002118FE21A1180522DE
:1003E00021190C22A1191322211A1A22A11A212241
:1003F000211B8801A11B88012010080087013308F8
:1004000000218800210887000800870132080021A8
:10041000880021088700080087013608002188002D
:10042000210887000800870135080021880021087D
:10043000870008008701390800218800210887000B
:10044000080087013808002188002108870008007B
:100450002308B100B20A0A30B10203182A2AB203F3
:100460000A30B1073108B3002408B400B50A0A30D5
:10047000B4020318362AB5030A30B4073408B600AC
:100480002508B700B80A0A30B7020318422AB80391
:100490000A30B7073708B90008002014A010A10DD2
:1004A0000318532A08000130A10008002808AD07EE
:0404B000A01308008D
:04400E003420FF3F1C
:00000001FF
