:020000001329C2
:10000800F000030EF1000B1814280B190C28102807
:10001800B00AB10A0B1101228C1C1C28A0148C10E8
:10002800061C2017861C2114061DA11406080B1097
:0A003800710E8300F00E700E090037
:100200008A010A1482073F3406345B344F34663463
:100210006D347D3407347F34673477347C3439343B
:100220005E3479347134031783168801890103130E
:100230008316850187018801890107308600AF3068
:1002400092000313831285018601870188018901C9
:10025000A2012214B001BC01031383128B178B156A
:100260008B160B170B110B10031383168C1403132F
:1002700083128C1091010313831264008101031314
:1002800083160F178F160F120F148112811101158B
:100290008110011401220F30920003138316811381
:1002A00007309500073096000313831206080B10E1
:1002B0000A30A700A800A900BD00BE00BF00822927
:1002C000A401A501A601A001A101B001B1013D0851
:1002D000A7003E08A8003F08A900DE21FF308800E3
:1002E000870086008500890064303006031D74296C
:1002F000B001B20A05303206031D7429B201B00103
:10030000860186152708AA00AE00AF002808AB00BA
:10031000AD00AF072908AC00AD07A3012314A01757
:100320009129A0180A232408031943222508031938
:1003300053222608031965226430300603197522FA
:10034000143031060319A016B401B501B701B80184
:10035000BA01BB01C101C20121181723A118302322
:100360002018D22220187A220330240603192E22C4
:1003700003302506031935220330260603193C22D3
:10038000063024060319072220190A220630250602
:1003900003191422A0191722063026060319212258
:1003A000201A2422A01AB101A012201BE7213C1E12
:1003B0009129A118DE212118602991290A30BD0058
:1003C000BE00BF00BC013C14860186150800061C57
:1003D000080020130310BC0DBC1EF029BC013C1406
:1003E00086010030BC06031DF6293C143C18861516
:1003F000BC1806163C198616BC1906173C1A861737
:10040000080003138312633081000B110800231CC2
:100410002015080005190F2AA01A05150800A01AB2
:100420000511071087100800A31CA0150800851AE5
:100430001C2AA01A85160800A01A85120711871118
:100440000800231D201608000919292AA01A0915D9
:100450000800A01A091107128712080023180800C3
:1004600020110511851405100800A3180800A0111B
:10047000851205168511080023190800201209119C
:10048000891409100800231C4C2A2A08A4002310F0
:1004900005158510051008002D08A400231405116A
:1004A000851005140800A31C5C2A2B08A500A310C6
:1004B00085160512851108002E08A500A3148512C3
:1004C00005128515A01B13230800231D6E2A2C0876
:1004D000A600231109158910091008002F08A6008D
:1004E00023150911891009140800A403A503A60304
:1004F000B001080022189422A2189B222219A222DD
:10050000A219A922221AB022A21AB7223C188E2AB6
:10051000221BBE22A21BC82220100800221B880119
:10052000A21B8801201008008701350800218800DF
:10053000220887000800870134080021880022086B
:1005400087000800870138080021880022088700FA
:10055000080087013708002188002208870008006A
:1005600087013B08002188002208870008008701D6
:100570003A080021880022088700080087013C1EF5
:1005800042083C1A0C30002188002208870008002D
:1005900087013C1E41083C1A0A30002188002208CD
:1005A000870008002408B300B40A0A30B302031815
:1005B000D42AB4030A30B3073308B5002508B600BF
:1005C000B70A0A30B6020318E02AB7030A30B607A2
:1005D0003608B8002608B900BA0A0A30B90203186A
:1005E000EC2ABA030A30B9073908BB003C180800E6
:1005F000BC183D083C193E08BC193F08C000C10AA0
:100600000A30C0020318FF2AC1030A30C00740089D
:10061000C20008002014A010A20D0318102B08001F
:100620000130A20008002908AE07A0130800861CAC
:100630000800BC1C202BBD0A15303D0603194923B8
:100640003C1D272BBE0A15303E0603194923BC1D4D
:100650002E2BBF0A15303F0603194923211008002D
:10066000061D0800BC1C392BBD0309303D060319CB
:1006700051233C1D402BBE0309303E060319512374
:10068000BC1D472BBF0309303F0603195123A1109E
:1006900008000A30BC18BD003C19BE00BC19BF00E0
:1006A00008001430BC18BD003C19BE00BC19BF00C6
:0206B000080040
:04400E003420FF3F1C
:00000001FF
