:020000001329C2
:10000800F000030EF1000B1814280B190C28102807
:10001800B00AB10A0B1105228C1C1C28A0148C10E4
:10002800061C2017861C2114061DA11406080B1097
:0A003800710E8300F00E700E090037
:100200008A010A1482073F3406345B344F34663463
:100210006D347D3407347F34673477347C3439343B
:100220005E3479347134031783168801890103130E
:100230008316850187018801890107308600AF3068
:1002400092000313831285018601870188018901C9
:10025000A2012214B001BC01031383128B178B156A
:100260008B160B170B110B10031383168C1403132F
:1002700083128C1091010313831264008101031314
:1002800083160F178F160F120F148112811101158B
:100290008110011405220F3092000313831681137D
:1002A00007309500073096000313831206080B10E1
:1002B0000A30A700A800A900BD00BE00BF00822927
:1002C000A401A501A601A001A101B001B1013D0851
:1002D000A7003E08A8003F08A900E221FF308800DF
:1002E000870086008500890064303006031D74296C
:1002F000B001B20A03303206031D7429B201B00105
:10030000860186152708AA00AE00AF002808AB00BA
:10031000AD00AF072908AC00AD07A3012314A01757
:100320000330C300C400C5009529A0183823240851
:1003300003194A22250803195D222608031972228F
:100340006430300603198522143031060319A016D3
:10035000B401B501B701B801BA01BB01C101C201C5
:1003600021184523A1185E232018E8222018902286
:1003700003302406031932220330250603193A22DA
:1003800003302606031942220630240603190B22E5
:1003900020190E220630250603191822A0191B2247
:1003A0000630260603192522201A2822A01AB10198
:1003B000A012201BEB213C1E9529A118E221211837
:1003C000602995290A30BD00BE00BF00BC013C1465
:1003D000860186150800061C080020130310BC0DBA
:1003E000BC1EF429BC013C1486010030BC06031D70
:1003F000FA293C143C188615BC1806163C198616BA
:10040000BC1906173C1A86170800031383126330C1
:1004100081000B110800231C201508000519132A60
:10042000A01A05150800A01A05110710871008006A
:10043000A31CA0150800851A202AA01A85160800FA
:10044000A01A8512071187110800231D2016080025
:1004500009192D2AA01A09150800A01A0911071256
:1004600087120800231808002011A3150511851410
:1004700005100800A3180800A01123168512051600
:1004800085110800231908002012A31609118914E8
:1004900009100800231C532A2A08A400231005155C
:1004A0008510051008002D08A400231405118510DF
:1004B0000514A3110330C3000800A31C662A2B08EF
:1004C000A500A31085160512851108002E08A500A9
:1004D000A314851205128515A01B41232312033096
:1004E000C4000800231D7B2A2C08A600231109152F
:1004F0008910091008002F08A6002315091189107A
:100500000914A3120330C5000800A403A503A60321
:10051000A319C303231AC403A31AC503B001080017
:100520002218AA22A218B1222219B822A219BF2287
:10053000221AC622A21ACD223C18A42A221BD42297
:10054000A21BDE2220100800221B8801A21B8801AA
:100550002010080087013508002188002208870044
:10056000080087013408002188002208870008005D
:1005700087013808002188002208870008008701C9
:1005800037080021880022088700080087013B08FF
:100590000021880022088700080087013A0800210E
:1005A000880022088700080087013C1E42083C1A88
:1005B0000C300021880022088700080087013C1EBB
:1005C00041083C1A0A3000218800220887000800F0
:1005D0002318ED2A03302402EF2A2408F12AA31954
:1005E0004308B300B40A0A30B3020318F22AB40372
:1005F0000A30B3073308B500A318012B03302502D6
:10060000032B2508052B231A4408B600B70A0A3025
:10061000B6020318062BB7030A30B6073608B8002F
:100620002319152B03302602172B2608192BA31A82
:100630004508B900BA0A0A30B90203181A2BBA03DE
:100640000A30B9073908BB003C180800BC183D083F
:100650003C193E08BC193F08C000C10A0A30C0025C
:1006600003182D2BC1030A30C0074008C200080040
:100670002014A010A20D03183E2B08000130A20088
:1006800008002908AE07A0130800861C0800BC1C3F
:100690004E2BBD0A15303D06031977233C1D552B03
:1006A000BE0A15303E0603197723BC1D5C2BBF0A1A
:1006B00015303F060319772321100800061D080096
:1006C000BC1C672BBD0309303D0603197F233C1D6D
:1006D0006E2BBE0309303E0603197F23BC1D752B0C
:1006E000BF0309303F0603197F23A11008000A3019
:1006F000BC18BD003C19BE00BC19BF000800143076
:0E070000BC18BD003C19BE00BC19BF000800AB
:04400E003420FF3F1C
:00000001FF
