:020000001329C2
:10000800F000030EF1000B190A280D28AF0A0B1196
:100018006E218C1C16280310B00AA10D211A1B2072
:1000280020148C10710E8300F00E700E0900A101CF
:0C003800211408000310A101211408008D
:100200008A010A1482073F3406345B344F34663463
:100210006D347D3407347F34673477347C3439343B
:100220005E3479347134031783168801890103130E
:100230008316850187018801890107308600031331
:10024000831285018601870188018901A10121149A
:10025000AF01031383128B178B160B170B110313AC
:1002600083168C14031383128C10910103138312D1
:1002700064008101031383160F178F160F120F14DA
:10028000811281110115811001146E21EF3092004D
:100290000A30A600A700A8004D292608A900AD0035
:1002A000AE002708AA00AC00AE072808AB00AD07D7
:1002B000AC07A20122145C29230803197421240825
:1002C00003197E2164302F0603198821B201B3017E
:1002D000B501B601B22120188C215C2903138312C9
:1002E000633081000B110800221C7A292908A30021
:1002F000221008002C08A30022140800A21C842944
:100300002A08A400A21008002D08A400A2140800C6
:10031000A303A403AF01080021189621A1189D2171
:100320002119A421A119AB2120100800870133084D
:100330000021880021088700080087013208002179
:1003400088002108870008008701360800218800FE
:10035000210887000800870135080021880021084E
:10036000870008002308B100B20A0A30B10203185E
:10037000B429B2030A30B1073108B3002408B4002D
:10038000B50A0A30B4020318C029B5030A30B4070D
:060390003408B60008006D
:04400E003420FF3F1C
:00000001FF
