:020000001329C2
:10000800F000030EF1000B1814280B190C28102807
:10001800B00AB10A0B11DD218C1C1C28A0148C100D
:10002800061C2017861C2114061DA11406080B1097
:0A003800710E8300F00E700E090037
:100200008A010A1482073F3406345B344F34663463
:100210006D347D3407347F34673477347C3439343B
:100220005E3479347134031783168801890103130E
:100230008316850187018801890107308600AF3068
:1002400092000313831285018601870188018901C9
:10025000A2012214B001BB01031383128B178B156B
:100260008B160B170B110B10031383168C1403132F
:1002700083128C1091010313831264008101031314
:1002800083160F178F160F120F148112811101158B
:1002900081100114DD210F309200031383168113A6
:1002A00007309500073096000313831206080B10E1
:1002B0000A30A700A800A900BC00BD00BE0060294C
:1002C0002708AA00AE00AF002808AB00AD00AF07BA
:1002D0002908AC00AD07A3012314A0176F29A018AB
:1002E000E622240803191F22250803192F222608B5
:1002F00003194122643030060319512214303106AB
:100300000319A016B301B401B601B701B901BA01CE
:10031000C001C1012118F322A1180C232018AE221C
:10032000201856220330240603190A22033025061A
:100330000319112203302606031918220630240659
:100340000319E3212019E621063025060319F021BF
:10035000A019F321063026060319FD21201A0022D8
:10036000A01AB101A012201BC3213B1E6F29A118A6
:10037000BA216F290A30BC00BD00BE00BB013B148E
:10038000860186150800061C080020130310BB0D0B
:10039000BB1ECC29BB013B1486010030BB06031DEC
:1003A000D2293B143B188615BB1806163B19861636
:1003B000BB1906173B1A8617080003138312633014
:1003C00081000B110800231C201508000519EB29DA
:1003D000A01A05150800A01A0511071087100800BB
:1003E000A31CA0150800851AF829A01A8516080074
:1003F000A01A8512071187110800231D2016080076
:100400000919052AA01A09150800A01A09110712CE
:100410008712080023180800201105118514051003
:100420000800A3180800A011851205168511080000
:100430002319080020120911891409100800231C2F
:10044000282A2A08A4002310051585100510080085
:100450002D08A40023140511851005140800A31C01
:10046000382A2B08A500A31085160512851108004F
:100470002E08A500A314851205128515A01BEF22D6
:100480000800231D4A2A2C08A600231109158910EB
:10049000091008002F08A600231509118910091456
:1004A0000800A403A503A603B001080022187022C7
:1004B000A218772222197E22A2198522221A8C22C2
:1004C000A21A93223B186A2A221B9A22A21BA42258
:1004D00020100800221B8801A21B880120100800A0
:1004E000870134080021880022088700080087015E
:1004F0003308002188002208870008008701370898
:1005000000218800220887000800870136080021A2
:10051000880022088700080087013A080021880027
:100520002208870008008701390800218800220876
:100530008700080087013B1E41083B1A0C30002150
:10054000880022088700080087013B1E40083B1AEC
:100550000A30002188002208870008002408B20021
:10056000B30A0A30B2020318B02AB3030A30B20742
:100570003208B4002508B500B60A0A30B5020318DF
:10058000BC2AB6030A30B5073508B7002608B800FC
:10059000B90A0A30B8020318C82AB9030A30B807E2
:1005A0003808BA003B180800BB183C083B193D0846
:1005B000BB193E08BF00C00A0A30BF020318DB2A7D
:1005C000C0030A30BF073F08C10008002014A01074
:1005D000A20D0318EC2A08000130A2000800290827
:1005E000AE07A0130800861C0800BB1CFC2ABC0A2E
:1005F00015303C06031925233B1D032BBD0A15307E
:100600003D0603192523BB1D0A2BBE0A15303E06E5
:100610000319252321100800061D0800BB1C152BFB
:10062000BC0309303C0603192D233B1D1C2BBD03C5
:1006300009303D0603192D23BB1D232BBE030930B2
:100640003E0603192D23A11008000A30BB18BC0078
:100650003B19BD00BB19BE0008001430BB18BC001C
:0A0660003B19BD00BB19BE000800E5
:04400E003420FF3F1C
:00000001FF
