:020000001329C2
:10000800F000030EF1000B190A280D28AF0A0B1196
:1000180073218C1C16280310B00AA10D211B1B206C
:1000280020148C10710E8300F00E700E0900A101CF
:0C003800211408000310A101211408008D
:100200008A010A1482073F3406345B344F34663463
:100210006D347D3407347F34673477347C3439343B
:100220005E3479347134031783168801890103130E
:100230008316850187018801890107308600031331
:10024000831285018601870188018901A10121149A
:10025000AF01031383128B178B160B170B110313AC
:1002600083168C14031383128C10910103138312D1
:1002700064008101031383160F178F160F120F14DA
:10028000811281110115811001147321EF30920048
:100290000A30A600A700A8004D292608A900AD0035
:1002A000AE002708AA00AC00AE072808AB00AC07D8
:1002B000A2012214A0175C2923080319792124081C
:1002C0000319832125080319932164302F0603198C
:1002D0009D21B201B301B501B601B801B901DA211E
:1002E0002018A2215C2903138312633081000B11B3
:1002F0000800221C7F292908A300221008002C08CE
:10030000A30022140800A21C89292A08A400A21014
:1003100008002D08A400A214A01B8F2108002808A3
:10032000AD07A0130800221D99292B08A500221152
:1003300008002E08A50022150800A303A403A503A6
:10034000AF0108002118B021A118B7212119BE2141
:10035000A119C521211ACC21A11AD32120100800EE
:1003600087013308002188002108870008008701E1
:10037000320800218800210887000800870136081C
:100380000021880021088700080087013508002126
:1003900088002108870008008701390800218800AB
:1003A00021088700080087013808002188002108FB
:1003B000870008002308B100B20A0A30B10203180E
:1003C000DC29B2030A30B1073108B3002408B400B5
:1003D000B50A0A30B4020318E829B5030A30B40795
:1003E0003408B6002508B700B80A0A30B702031867
:0E03F000F429B8030A30B7073708B90008002F
:04400E003420FF3F1C
:00000001FF
