:020000001329C2
:10000800F000030EF1000B190A280D28AF0A0B1196
:1000180069218C1C16280310B00AA10D21191B2078
:1000280020148C10710E8300F00E700E0900A101CF
:0C003800211408000310A101211408008D
:100200008A010A1482073F3406345B344F34663463
:100210006D347D3407347F34673477347C3439343B
:100220005E3479347134031783168801890103130E
:100230008316850187018801890107308600031331
:10024000831285018601870188018901A10121149A
:10025000AF01031383128B178B160B170B110313AC
:1002600083168C14031383128C10910103138312D1
:1002700064008101031383160F178F160F120F14DA
:10028000811281110115811001146921EF30920052
:100290000A30A600A700A8004D292608A900AD0035
:1002A000AE002708AA00AC00AE072808AB00AD07D7
:1002B000AC07A20122145C29230803196F216430C2
:1002C0002F0603197921B201B301902120187C2156
:1002D0005C2903138312633081000B110800221C78
:1002E00075292908A300221008002C08A300221455
:1002F0000800A303AF01080021188221A118892159
:100300002010080087013308002188002108870099
:1003100008008701320800218800210887000800B2
:100320002308B100B20A0A30B10203189229B203BD
:0A0330000A30B1073108B3000800DD
:04400E003420FF3F1C
:00000001FF
