:020000001329C2
:10000800F000030EF1000B190A280D28AF0A0B1196
:1000180078218C1C112830148C10710E8300F00E7E
:04002800700E09004D
:100200008A010A1482073F3406345B344F34663463
:100210006D347D3407347F34673477347C3439343B
:100220005E3479347134031783168801890103130E
:100230008316850187018801890107308600AF3068
:1002400092000313831285018601870188018901C9
:10025000A1012114AF01031383128B178B160B1707
:100260000B11031383168C14031383128C1091014A
:100270000313831264008101031383160F178F1673
:100280000F120F14811281110115811001147821B0
:100290000F3092000F30A600A700A8004F292608B3
:1002A000A900AD00AE002708AA00AC00AE072808E0
:1002B000AB00AC07A2012214A0175E293018162249
:1002C000230803197E21240803198E212508031908
:1002D000A02164302F060319B021B201B301B5018A
:1002E000B601B801B9012018F1212018B5215E2905
:1002F00003138312633081000B110800221C87292D
:100300002908A300221005158510051008002C08E7
:10031000A30022140511851005140800A21C9729BA
:100320002A08A400A21085160512851108002D08C0
:10033000A400A214851205128515A01B1F22080017
:10034000221DA9292B08A5002211091589100910C1
:1003500008002E08A50022150911891009140800AB
:10036000A303A403A503AF0108002118C721A11806
:10037000CE212119D521A119DC21211AE321A11AAD
:10038000EA21211B8801A11B880120100800870198
:1003900033080021880021088700080087013208FF
:1003A0000021880021088700080087013608002105
:1003B000880021088700080087013508002188008F
:1003C00021088700080087013908002188002108DA
:1003D000870008008701380800218800210887006D
:1003E00008002308B100B20A0A30B1020318F32949
:1003F000B2030A30B1073108B3002408B400B50ACB
:100400000A30B4020318FF29B5030A30B4073408D0
:10041000B6002508B700B80A0A30B70203180B2A3D
:10042000B8030A30B7073708B90008002014B00134
:10043000A10D03181C2A08000130A100080028089B
:06044000AD07A013080047
:04400E003420FF3F1C
:00000001FF
