:020000001329C2
:10000800F000030EF1000B1814280B190C28102807
:10001800AF0AB00A0B11CC218C1C1828A0148C1024
:10002800061C201706080B10710E8300F00E700EC8
:020038000900BD
:100200008A010A1482073F3406345B344F34663463
:100210006D347D3407347F34673477347C3439343B
:100220005E3479347134031783168801890103130E
:100230008316850187018801890107308600AF3068
:1002400092000313831285018601870188018901C9
:10025000A1012114AF01BA01031383128B178B156F
:100260008B160B170B110B10031383168C1403132F
:1002700083128C1091010313831264008101031314
:1002800083160F178F160F120F148112811101158B
:1002900081100114CC210F309200031383168113B7
:1002A00007309500073096000313831206080B10E1
:1002B0000A30A600A700A800BB00BC00BD00602952
:1002C0002608A900AD00AE002708AA00AC00AE07C2
:1002D0002808AB00AC07A2012214A0176F29A018B0
:1002E000D522230803190E22240803191E222508EB
:1002F0000319302264302F060319402214303006CF
:100300000319A016B201B301B501B601B801B901D4
:10031000BF01C00120189D2220184522033023066A
:100320000319F9210330240603190022033025069E
:1003300003190722063023060319D2212019D521DB
:10034000063024060319DF21A019E2210630250614
:100350000319EC21201AEF21A01AB001A012201BD2
:10036000B2216F29061C080020130310BA0DBA1E13
:10037000BB29BA013A1486010030BA06031DC1290F
:100380003A143A188615BA1806163A198616BA1982
:1003900006173A1A86170800031383126330810088
:1003A0000B110800221C201508000519DA29A01AD3
:1003B00005150800A01A0511071087100800A21CD7
:1003C000A0150800851AE729A01A85160800A01AAA
:1003D0008512071187110800221D2016080009192F
:1003E000F429A01A09150800A01A0911071287128A
:1003F00008002218080020110511851405100800B6
:10040000A2180800A01185120516851108002219EE
:10041000080020120911891409100800221C172A4B
:100420002908A300221005158510051008002C08C6
:10043000A30022140511851005140800A21C272A08
:100440002A08A400A21085160512851108002D089F
:10045000A400A214851205128515A01BDE22080037
:10046000221D392A2B08A50022110915891009100F
:1004700008002E08A500221509118910091408008A
:10048000A303A403A503AF01080021185F22A1184C
:10049000662221196D22A1197422211A7B22A11A28
:1004A00082223A18592A211B8922A11B932220104B
:1004B0000800211B8801A11B88012010080087016A
:1004C00033080021880021088700080087013208CE
:1004D00000218800210887000800870136080021D4
:1004E000880021088700080087013508002188005E
:1004F00021088700080087013908002188002108A9
:10050000870008008701380800218800210887003B
:10051000080087013A1E40083A1A0C300021880072
:1005200021088700080087013A1E3F083A1A0A305E
:10053000002188002108870008002308B100B20AC2
:100540000A30B10203189F2AB2030A30B1073108FA
:10055000B3002408B400B50A0A30B4020318AB2A69
:10056000B5030A30B4073408B6002508B700B80A46
:100570000A30B7020318B72AB8030A30B70737089A
:10058000B9003A180800BA183B083A193C08BA19D9
:100590003D08BE00BF0A0A30BE020318CA2ABF03C4
:1005A0000A30BE073E08C00008002014A010A10DAC
:1005B0000318DB2A08000130A10008002808AD0755
:0405C000A01308007C
:04400E003420FF3F1C
:00000001FF
