:020000001329C2
:10000800F000030EF1000B190A280E28AF0AB00AF7
:100018000B119D218C1C1228A0148C10710E8300CA
:06002800F00E700E09004D
:100200008A010A1482073F3406345B344F34663463
:100210006D347D3407347F34673477347C3439343B
:100220005E3479347134031783168801890103130E
:100230008316850187018801890107308600AF3068
:1002400092000313831285018601870188018901C9
:10025000A1012114AF01031383128B178B160B1707
:100260000B11031383168C14031383128C1091014A
:100270000313831264008101031383160F178F1673
:100280000F120F14811281110115811001149D218B
:100290000F3092000A30A600A700A8004F292608B8
:1002A000A900AD00AE002708AA00AC00AE072808E0
:1002B000AB00AC07A2012214A0175E29A01871227E
:1002C00023080319D92124080319E9212508031952
:1002D000FB2164302F0603190B221430300603195A
:1002E000A016B201B301B501B601B801B9012018D9
:1002F0004C2220181022033023060319C421033096
:1003000024060319CB21033025060319D221063018
:1003100023060319A3212019A62106302406031958
:10032000AE21A019B121063025060319B921201AE2
:10033000BC21A01AB001A0125E29031383126330FE
:1003400081000B110800221C201508000519AB299B
:10035000A01A05150800A01A05110800A21CA01576
:100360000800851AB629A01A85160800A01A851259
:100370000800221D201608000919C129A01A091514
:100380000800A01A09110800221808002011051100
:10039000851405100800A2180800A0118512051682
:1003A000851108002219080020120911891409106A
:1003B0000800221CE2292908A30022100515851037
:1003C000051008002C08A30022140511851005143F
:1003D0000800A21CF2292A08A400A2108516051202
:1003E000851108002D08A400A21485120512851598
:1003F000A01B7A220800221D042A2B08A500221126
:1004000009158910091008002E08A50022150911E8
:10041000891009140800A303A403A503AF01080071
:1004200021182222A118292221193022A1193722AC
:10043000211A3E22A11A4522211B8801A11B8801F5
:100440002010080087013308002188002108870058
:100450000800870132080021880021088700080071
:1004600087013608002188002108870008008701DD
:100470003508002188002108870008008701390815
:100480000021880021088700080087013808002122
:1004900088002108870008002308B100B20A0A304A
:1004A000B10203184E2AB2030A30B1073108B30073
:1004B0002408B400B50A0A30B40203185A2AB50356
:1004C0000A30B4073408B6002508B700B80A0A3065
:1004D000B7020318662AB8030A30B7073708B9000D
:1004E00008002014A010A10D0318772A080001307D
:0C04F000A10008002808AD07A0130800B8
:04400E003420FF3F1C
:00000001FF
