:020000001329C2
:10000800F000030EF1000B1814280B190C28102807
:10001800AF0AB00A0B11C7218C1C1828A0148C1029
:10002800061C201706080B10710E8300F00E700EC8
:020038000900BD
:100200008A010A1482073F3406345B344F34663463
:100210006D347D3407347F34673477347C3439343B
:100220005E3479347134031783168801890103130E
:100230008316850187018801890107308600AF3068
:1002400092000313831285018601870188018901C9
:10025000A1012114AF01BA01031383128B178B156F
:100260008B160B170B110B10031383168C1403132F
:1002700083128C1091010313831264008101031314
:1002800083160F178F160F120F148112811101158B
:1002900081100114C7210F309200031383168113BC
:1002A00007309500073096000313831206080B10E1
:1002B0000A30A600A700A8005D292608A900AD0005
:1002C000AE002708AA00AC00AE072808AB00AC07B8
:1002D000A2012214A0176C29A018A1222308031937
:1002E0000922240803191922250803192B22643036
:1002F0002F0603193B22143030060319A016B20151
:10030000B301B501B601B801B90120187C2220184B
:100310004022033023060319F42103302406031975
:10032000FB21033025060319022206302306031998
:10033000CD212019D021063024060319DA21A01975
:10034000DD21063025060319E721201AEA21A01A2B
:10035000B001A012201BAD216C29061C080020133F
:100360000310BA0DBA1EB629BA013A14860100303C
:10037000BA06031DBC293A143A188615BA1806168F
:100380003A198616BA1906173A1A8617080003137F
:100390008312633081000B110800221C2015080015
:1003A0000519D529A01A05150800A01A051107106E
:1003B00087100800A21CA0150800851AE229A01ABF
:1003C00085160800A01A8512071187110800221D42
:1003D000201608000919EF29A01A09150800A01A0B
:1003E00009110712871208002218080020110511B0
:1003F000851405100800A2180800A0118512051622
:100400008511080022190800201209118914091009
:100410000800221C122A2908A300221005158510A5
:10042000051008002C08A3002214051185100514DE
:100430000800A21C222A2A08A400A2108516051270
:10044000851108002D08A400A21485120512851537
:10045000A01BAA220800221D342A2B08A500221165
:1004600009158910091008002E08A5002215091188
:10047000891009140800A303A403A503AF01080011
:1004800021185222A118592221196022A11967228C
:10049000211A6E22A11A7522211B8801A11B880135
:1004A00020100800870133080021880021088700F8
:1004B0000800870132080021880021088700080011
:1004C000870136080021880021088700080087017D
:1004D00035080021880021088700080087013908B5
:1004E00000218800210887000800870138080021C2
:1004F00088002108870008002308B100B20A0A30EA
:10050000B10203187E2AB2030A30B1073108B300E2
:100510002408B400B50A0A30B40203188A2AB503C5
:100520000A30B4073408B6002508B700B80A0A3004
:10053000B7020318962AB8030A30B7073708B9007C
:1005400008002014A010A10D0318A72A08000130EC
:0C055000A10008002808AD07A013080057
:04400E003420FF3F1C
:00000001FF
