:020000001329C2
:10000800F000030EF1000B1814280B190C28102807
:10001800B00AB10A0B11D0218C1C1C28A0148C101A
:10002800061C2017861C2114061DA11406080B1097
:0A003800710E8300F00E700E090037
:100200008A010A1482073F3406345B344F34663463
:100210006D347D3407347F34673477347C3439343B
:100220005E3479347134031783168801890103130E
:100230008316850187018801890107308600AF3068
:1002400092000313831285018601870188018901C9
:10025000A2012214B001BB01031383128B178B156B
:100260008B160B170B110B10031383168C1403132F
:1002700083128C1091010313831264008101031314
:1002800083160F178F160F120F148112811101158B
:1002900081100114D0210F309200031383168113B3
:1002A00007309500073096000313831206080B10E1
:1002B0000A30A700A800A900BC00BD00BE0060294C
:1002C0002708AA00AE00AF002808AB00AD00AF07BA
:1002D0002908AC00AD07A3012314A0176F29A018AB
:1002E000D9222408031912222508031922222608DC
:1002F00003193422643030060319442214303106C5
:100300000319A016B301B401B601B701B901BA01CE
:10031000C001C1012118E622A118FF222018A12244
:1003200020184922033024060319FD210330250635
:10033000031904220330260603190B220630240673
:100340000319D6212019D921063025060319E321E6
:10035000A019E621063026060319F021201AF32100
:10036000A01AB101A012201BB6216F29061C08009B
:1003700020130310BB0DBB1EBF29BB013B1486011C
:100380000030BB06031DC5293B143B188615BB185E
:1003900006163B198616BB1906173B1A8617080066
:1003A00003138312633081000B110800231C2015F6
:1003B00008000519DE29A01A05150800A01A051164
:1003C000071087100800A31CA0150800851AEB2948
:1003D000A01A85160800A01A8512071187110800B7
:1003E000231D201608000919F829A01A091508006C
:1003F000A01A0911071287120800231808002011FB
:100400000511851405100800A3180800A011851215
:1004100005168511080023190800201209118914F6
:1004200009100800231C1B2A2A08A4002310051504
:100430008510051008002D08A4002314051185104F
:1004400005140800A31C2B2A2B08A500A310851651
:100450000512851108002E08A500A31485120512A7
:100460008515A01BE2220800231D3D2A2C08A600AA
:10047000231109158910091008002F08A60023155B
:100480000911891009140800A403A503A603B001EB
:10049000080022186322A2186A2222197122A219C6
:1004A0007822221A7F22A21A86223B185D2A221B5A
:1004B0008D22A21B972220100800221B8801A21B5C
:1004C00088012010080087013408002188002208D4
:1004D0008700080087013308002188002208870070
:1004E00008008701370800218800220887000800DB
:1004F000870136080021880022088700080087014C
:100500003A0800218800220887000800870139087E
:100510000021880022088700080087013B1E41084F
:100520003B1A0C3000218800220887000800870150
:100530003B1E40083B1A0A30002188002208870031
:1005400008002408B200B30A0A30B2020318A32A32
:10055000B3030A30B2073208B4002508B500B60A62
:100560000A30B5020318AF2AB6030A30B5073508BA
:10057000B7002608B800B90A0A30B8020318BB2A27
:10058000B9030A30B8073808BA003B180800BB188E
:100590003C083B193D08BB193E08BF00C00A0A30A1
:1005A000BF020318CE2AC0030A30BF073F08C100AC
:1005B00008002014A010A20D0318DF2A0800013043
:1005C000A20008002908AE07A0130800861C080036
:1005D000BB1CEF2ABC0A15303C06031918233B1D2F
:1005E000F62ABD0A15303D0603191823BB1DFD2A46
:1005F000BE0A15303E060319182321100800061DF7
:100600000800BB1C082BBC0309303C06031920233F
:100610003B1D0F2BBD0309303D0603192023BB1DD5
:10062000162BBE0309303E0603192023A110080033
:100630000A30BB18BC003B19BD00BB19BE00080046
:100640001430BB18BC003B19BD00BB19BE0008002C
:04400E003420FF3F1C
:00000001FF
