:020000001329C2
:10000800F000030EF1000B1814280B190C28102807
:10001800B00AB10A0B11EA218C1C1C28A0148C1000
:10002800061C2017861C2114061DA11406080B1097
:0A003800710E8300F00E700E090037
:100200008A010A1482073F3406345B344F34663463
:100210006D347D3407347F34673477347C3439343B
:100220005E3479347134031783168801890103130E
:100230008316850187018801890107308600AF3068
:1002400092000313831285018601870188018901C9
:10025000A2012214B001BB01031383128B178B156B
:100260008B160B170B110B10031383168C1403132F
:1002700083128C1091010313831264008101031314
:1002800083160F178F160F120F148112811101158B
:1002900081100114EA210F30920003138316811399
:1002A00007309500073096000313831206080B10E1
:1002B0000A30A700A800A900BC00BD00BE006B2941
:1002C000A401A501A601A0013C08A7003D08A800C3
:1002D0003E08A900C7212708AA00AE00AF002808E1
:1002E000AB00AD00AF072908AC00AD07A301231494
:1002F000A0177A29A018F322240803192C22250814
:1003000003193C22260803194E22643030060319D3
:100310005E22143031060319A016B301B401B601F0
:10032000B701B901BA01C001C10121180023A11808
:1003300019232018BB222018632203302406031936
:1003400017220330250603191E220330260603193F
:100350002522063024060319F0212019F321063046
:1003600025060319FD21A0190022063026060319CF
:100370000A22201A0D22A01AB101A012201BD0219E
:100380003B1E7A29A118C721211860297A290A3031
:10039000BC00BD00BE00BB013B14860186150800F1
:1003A000061C080020130310BB0DBB1ED929BB017E
:1003B0003B1486010030BB06031DDF293B143B18AC
:1003C0008615BB1806163B198616BB1906173B1A6D
:1003D0008617080003138312633081000B11080095
:1003E000231C201508000519F829A01A0515080076
:1003F000A01A0511071087100800A31CA0150800FB
:10040000851A052AA01A85160800A01A8512071158
:1004100087110800231D201608000919122AA01AA6
:1004200009150800A01A09110712871208002318DD
:10043000080020110511851405100800A3180800F4
:10044000A011851205168511080023190800201235
:100450000911891409100800231C352A2A08A40050
:10046000231005158510051008002D08A40023147D
:100470000511851005140800A31C452A2B08A500AA
:10048000A31085160512851108002E08A500A314D7
:10049000851205128515A01BFC220800231D572A72
:1004A0002C08A600231109158910091008002F082F
:1004B000A60023150911891009140800A403A50337
:1004C000A603B001080022187D22A2188422221956
:1004D0008B22A2199222221A9922A21AA0223B1838
:1004E000772A221BA722A21BB12220100800221B60
:1004F0008801A21B88012010080087013408002110
:10050000880022088700080087013308002188003E
:100510002208870008008701370800218800220888
:10052000870008008701360800218800220887001C
:10053000080087013A080021880022088700080087
:1005400087013908002188002208870008008701F8
:100550003B1E41083B1A0C3000218800220887000E
:10056000080087013B1E40083B1A0A300021880022
:100570002208870008002408B200B30A0A30B20239
:100580000318BD2AB3030A30B2073208B4002508A5
:10059000B500B60A0A30B5020318C92AB6030A30F4
:1005A000B5073508B7002608B800B90A0A30B802FE
:1005B0000318D52AB9030A30B8073808BA003B181F
:1005C0000800BB183C083B193D08BB193E08BF009A
:1005D000C00A0A30BF020318E82AC0030A30BF0766
:1005E0003F08C10008002014A010A20D0318F92A2A
:1005F00008000130A20008002908AE07A013080077
:10060000861C0800BB1C092BBC0A15303C060319CC
:1006100032233B1D102BBD0A15303D060319322332
:10062000BB1D172BBE0A15303E06031932232110BD
:100630000800061D0800BB1C222BBC0309303C0629
:1006400003193A233B1D292BBD0309303D0603192D
:100650003A23BB1D302BBE0309303E0603193A2353
:10066000A11008000A30BB18BC003B19BD00BB1923
:10067000BE0008001430BB18BC003B19BD00BB19FC
:04068000BE000800B0
:04400E003420FF3F1C
:00000001FF
