:020000001329C2
:10000800F000030EF1000B190A280E28AF0AB00AF7
:100018000B119D218C1C1228A0148C10710E8300CA
:06002800F00E700E09004D
:100200008A010A1482073F3406345B344F34663463
:100210006D347D3407347F34673477347C3439343B
:100220005E3479347134031783168801890103130E
:100230008316850187018801890107308600AF3068
:1002400092000313831285018601870188018901C9
:10025000A1012114AF01031383128B178B160B1707
:100260000B11031383168C14031383128C1091014A
:100270000313831264008101031383160F178F1673
:100280000F120F14811281110115811001149D218B
:100290000F3092000A30A600A700A8004F292608B8
:1002A000A900AD00AE002708AA00AC00AE072808E0
:1002B000AB00AC07A2012214A0175E29A018772278
:1002C00023080319DF2124080319EF212508031946
:1002D000012264302F06031911221430300603194D
:1002E000A016B201B301B501B601B801B9012018D9
:1002F000522220181622033023060319CA21033084
:1003000024060319D121033025060319D82106300C
:1003100023060319A3212019A62106302406031958
:10032000B021A019B321063025060319BD21201ADA
:10033000C021A01AB001A0125E29031383126330FA
:1003400081000B110800221C201508000519AB299B
:10035000A01A05150800A01A05110710871008003B
:10036000A21CA0150800851AB829A01A8516080035
:10037000A01A8512071187110800221D20160800F7
:100380000919C529A01A09150800A01A0911071290
:100390008712080022180800201105118514051085
:1003A0000800A2180800A011851205168511080082
:1003B0002219080020120911891409100800221CB2
:1003C000E8292908A300221005158510051008004A
:1003D0002C08A30022140511851005140800A21C86
:1003E000F8292A08A400A210851605128511080014
:1003F0002D08A400A214851205128515A01B8022C9
:100400000800221D0A2A2B08A500221109158910AF
:10041000091008002E08A5002215091189100914D9
:100420000800A303A403A503AF0108002118282294
:10043000A1182F2221193622A1193D22211A442266
:10044000A11A4B22211B8801A11B88012010080042
:1004500087013308002188002108870008008701F0
:10046000320800218800210887000800870136082B
:100470000021880021088700080087013508002135
:1004800088002108870008008701390800218800BA
:10049000210887000800870138080021880021080A
:1004A000870008002308B100B20A0A30B10203181D
:1004B000542AB2030A30B1073108B3002408B4004B
:1004C000B50A0A30B4020318602AB5030A30B4072B
:1004D0003408B6002508B700B80A0A30B702031876
:1004E0006C2AB8030A30B7073708B900080020148F
:1004F000A010A10D03187D2A08000130A1000800FA
:080500002808AD07A013080054
:04400E003420FF3F1C
:00000001FF
