:020000000029D5
:10000800F000030EF1000B190A280D28AF0A0B1196
:100018003E218C1C14280310A10D031819208C10E4
:10002800710E8300F00E700E09000310A101211457
:020038000800BE
:10020000031783168801890103138316850187016B
:100210008801890107308600031383128501860156
:10022000870188018901A1012114AF010313831201
:100230008B178B160B170B11031383168C140313D8
:1002400083128C1091010313831264008101031344
:1002500083160F178F160F120F14811281110115BB
:10026000811001143E21EF30920036293729643085
:100270002F0603194421210888003729031383120C
:10028000633081000B110800AF01013089060800BE
:04400E003420FF3F1C
:00000001FF
