:020000001329C2
:10000800F000030EF1000B190A280D28AF0A0B1196
:1000180084218C1C1128A0148C10710E8300F00E02
:04002800700E09004D
:100200008A010A1482073F3406345B344F34663463
:100210006D347D3407347F34673477347C3439343B
:100220005E3479347134031783168801890103130E
:100230008316850187018801890107308600AF3068
:1002400092000313831285018601870188018901C9
:10025000A1012114AF01031383128B178B160B1707
:100260000B11031383168C14031383128C1091014A
:100270000313831264008101031383160F178F1673
:100280000F120F14811281110115811001148421A4
:100290000F3092000F30A600A700A8004F292608B3
:1002A000A900AD00AE002708AA00AC00AE072808E0
:1002B000AB00AC07A2012214A0175E29A0183422BB
:1002C000230803199C2124080319AC2125080319CC
:1002D000BE2164302F060319CE21B201B301B5014E
:1002E000B601B801B90120180F222018D32103301C
:1002F000230603198A2103302406031990210330B1
:100300002506031996215E290313831263308100A9
:100310000B110800221808000511851405100800AB
:10032000A218080085120516851108002219080078
:100330000911891409100800221CA5292908A30005
:10034000221005158510051008002C08A3002214A2
:100350000511851005140800A21CB5292A08A4005F
:10036000A21085160512851108002D08A400A214FC
:10037000851205128515A01B3D220800221DC729E4
:100380002B08A500221109158910091008002E0854
:10039000A50022150911891009140800A303A4035C
:1003A000A503AF0108002118E521A118EC212119AE
:1003B000F321A119FA21211A0122A11A0822211BD5
:1003C0008801A11B88012010080087013308002143
:1003D0008800210887000800870132080021880072
:1003E00021088700080087013608002188002108BD
:1003F0008700080087013508002188002108870050
:1004000008008701390800218800210887000800BA
:100410008701380800218800210887000800230888
:10042000B100B20A0A30B1020318112AB2030A302D
:10043000B1073108B3002408B400B50A0A30B40289
:1004400003181D2AB5030A30B4073408B60025087E
:10045000B700B80A0A30B7020318292AB8030A30CD
:10046000B7073708B90008002014A010A10D031821
:100470003A2A08000130A10008002808AD07A0139F
:02048000080072
:04400E003420FF3F1C
:00000001FF
