:020000001329C2
:10000800F000030EF1000B1814280B190C28102807
:10001800AF0AB00A0B11C2218C1C1E28A0148C1028
:100028000030BA06031D1A283A141E28061C201789
:0E00380006080B10710E8300F00E700E09000A
:100200008A010A1482073F3406345B344F34663463
:100210006D347D3407347F34673477347C3439343B
:100220005E3479347134031783168801890103130E
:100230008316850187018801890107308600AF3068
:1002400092000313831285018601870188018901C9
:10025000A1012114AF01BA01031383128B178B156F
:100260008B160B170B110B10031383168C1403132F
:1002700083128C1091010313831264008101031314
:1002800083160F178F160F120F148112811101158B
:1002900081100114C2210F309200031383168113C1
:1002A00007309500073096000313831206080B10E1
:1002B0000A30A600A700A8005D292608A900AD0005
:1002C000AE002708AA00AC00AE072808AB00AC07B8
:1002D000A2012214A0176C29A0189C22230803193C
:1002E0000422240803191422250803192622643045
:1002F0002F0603193622143030060319A016B20156
:10030000B301B501B601B801B90120187722201850
:100310003B22033023060319EF210330240603197F
:10032000F621033025060319FD21063023060319A3
:10033000C8212019CB21063024060319D521A01984
:10034000D821063025060319E221201AE521A01A3A
:10035000B001A012201BAD216C29061C080020133F
:100360000310BA0DBA1EB629BA013A1486013A181A
:100370008615BA1806163A198616BA1906173A1AC1
:100380008617080003138312633081000B110800E5
:10039000221C201508000519D029A01A05150800EF
:1003A000A01A0511071087100800A21CA01508004C
:1003B000851ADD29A01A85160800A01A85120711D2
:1003C00087110800221D201608000919EA29A01A21
:1003D00009150800A01A091107128712080022182F
:1003E000080020110511851405100800A218080046
:1003F000A011851205168511080022190800201287
:100400000911891409100800221C0D2A2908A300CB
:10041000221005158510051008002C08A3002214D1
:100420000511851005140800A21C1D2A2A08A40025
:10043000A21085160512851108002D08A400A2142B
:10044000851205128515A01BA5220800221D2F2A42
:100450002B08A500221109158910091008002E0883
:10046000A50022150911891009140800A303A4038B
:10047000A503AF01080021184D22A118542221190B
:100480005B22A1196222211A6922A11A7022211B62
:100490008801A11B88012010080087013308002172
:1004A00088002108870008008701320800218800A1
:1004B00021088700080087013608002188002108EC
:1004C000870008008701350800218800210887007F
:1004D00008008701390800218800210887000800EA
:1004E00087013808002188002108870008002308B8
:1004F000B100B20A0A30B1020318792AB2030A30F5
:10050000B1073108B3002408B400B50A0A30B402B8
:100510000318852AB5030A30B4073408B600250845
:10052000B700B80A0A30B7020318912AB8030A3094
:10053000B7073708B90008002014A010A10D031850
:10054000A22A08000130A10008002808AD07A01366
:020550000800A1
:04400E003420FF3F1C
:00000001FF
